:400000000080002011000000493B0000493B000080B500AF47F2BC63C4F2000344F2FA62C4F2000212681A6003F092FD10B5054C237833B9044810B10448AFF30080012118
:40004000217010BD8881FF1F00000000C081000008B5064B1BB106480649AFF300800648016811B1054A02B1904708BD00000000C08100008C81FF1F0881FF1F00000000F7
:4000800080B586B000AF786007F10C03184648F2C411C0F200017A6807F08CFC07F10C03184604F0A3FD4FF00A0004F083FD07F11807BD4680BD00BF80B582B000AF78600C
:4000C00078684FF0000107F033FC0346002B16D0786806F085FE02460B46104619464FF000024FF00003C3F6E07306F01BFD02460B461046194607F0D9F8034615E07868E8
:4001000006F06EFE02460B46104619464FF000024FF00003C3F6E07306F002FD02460B461046194607F0C2F80346184607F10807BD4680BD98B500AF48F21823C1F6FF7304
:400140001A6848F20823C1F6FF731B68D21A44F24023C0F20F0303FB02F404F035FC034694FBF3F248F27823C1F6FF731A6048F2D013C1F6FF731A6848F28C23C1F6FF737B
:400180001B68D21A44F24023C0F20F0303FB02F404F01AFC034694FBF3F248F28423C1F6FF731A6048F2C423C1F6FF731A6848F22C23C1F6FF731B68D21A44F24023C0F2FC
:4001C0000F0303FB02F404F0FFFB034694FBF3F248F22C33C1F6FF731A6048F2BC23C1F6FF731A6848F2E023C1F6FF731B68D21A44F24023C0F20F0303FB02F404F0E4FB55
:40020000034694FBF3F248F21423C1F6FF731A6048F25823C1F6FF731A6848F21833C1F6FF731B68D21A44F24023C0F20F0303FB02F404F0C9FB034694FBF3F248F29023BD
:40024000C1F6FF731A6048F21023C1F6FF731A6848F23833C1F6FF731B68D21A44F24023C0F20F0303FB02F404F0AEFB034694FBF3F248F2D823C1F6FF731A6048F2242382
:40028000C1F6FF731A6848F2AC23C1F6FF731B68D21A44F24023C0F20F0303FB02F404F093FB034694FBF3F248F2FC13C1F6FF731A6048F29423C1F6FF731A6848F2F81395
:4002C000C1F6FF731B68D21A44F24023C0F20F0303FB02F404F078FB034694FBF3F248F2B033C1F6FF731A6048F21823C1F6FF731A6848F20823C1F6FF731A6048F2D013EC
:40030000C1F6FF731A6848F28C23C1F6FF731A6048F2C423C1F6FF731A6848F22C23C1F6FF731A6048F2BC23C1F6FF731A6848F2E023C1F6FF731A6048F25823C1F6FF730C
:400340001A6848F21833C1F6FF731A6048F21023C1F6FF731A6848F23833C1F6FF731A6048F22423C1F6FF731A6848F2AC23C1F6FF731A6048F29423C1F6FF731A6848F2C5
:40038000F813C1F6FF731A6098BD00BF80B500AF04F050FC48F21823C1F6FF731B681846FFF76EFE80BD00BFB0B5ADF5E54D9EB000AF62B604F08AFB04F0D2FF05F052F8AF
:4003C00003F03EFF04F032F904F0C6FD04F0CAFE06F098F904F0D2FA04F058FD05F04CFB05F03EFC05F0EEF905F02EFD05F020FE05F012FF06F004F806F0F6F840F23510DE
:40040000C0F2000004F00EFB40F28D30C0F2000004F046FC07F5AB4202F15802A2F10C0248F2D413C0F2000311461A4641F69843084611461A4607F0ABFA07F5645202F17A
:400440003802A2F1040249F66C63C0F2000311461A4641F69843084611461A4607F098FA07F5E75202F11802A2F15C024BF60433C0F2000311461A4641F6984308461146C1
:400480001A4607F085FA07F17802A2F174024DF29C73C0F2000311461A4641F69843084611461A4607F074FA4FF0000307F5E54000F13400036005F021FB0346C3F10003B9
:4004C00007F5E54101F130010B6005F00BFC034607F5E54202F12C02136005F0B5F90346C3F1000307F5E54000F12800036005F0EDFC034607F5E54101F124010B6005F050
:40050000D9FD034607F5E54202F12002136005F0C5FE0346C3F1000307F5E54000F11C00036005F0AFFF034607F5E54101F118010B6006F09BF80346C3F1000307F5E54278
:4005400002F11402136048F21823C1F6FF7307F5E54000F1300002681A6048F2D013C1F6FF7307F5E54101F12C010A681A6048F2C423C1F6FF7307F5E54000F128000268DA
:400580001A6048F2BC23C1F6FF7307F5E54101F124010A681A6048F25823C1F6FF7307F5E54000F1200002681A6048F21023C1F6FF7307F5E54101F11C010A681A6048F279
:4005C0002423C1F6FF7307F5E54000F1180002681A6048F29423C1F6FF7307F5E54101F114010A681A6048F20823C1F6FF7307F5E54000F1300002681A6048F28C23C1F6FA
:40060000FF7307F5E54101F12C010A681A6048F22C23C1F6FF7307F5E54000F1280002681A6048F2E023C1F6FF7307F5E54101F124010A681A6048F21833C1F6FF7307F516
:40064000E54000F1200002681A6048F23833C1F6FF7307F5E54101F11C010A681A6048F2AC23C1F6FF7307F5E54000F1180002681A6048F2F813C1F6FF7307F5E54101F1B3
:4006800014010A681A604FF0000003F0DFFE4FF0000003F0FDFE4FF0000004F0C7FF4FF0000004F0E5FF4FF0000005F019F94FF0000005F035F94FF0000006F021F94FF0B7
:4006C000000006F03FF941F2883003F035FF4FF0000307F5E54202F1100213604FF0000307F5E54000F10C0003604FF0000307F5E54101F108010B604FF0010307F5E542EA
:4007000002F10402136048F21033C1F6FF734FF000021A6048F25C23C1F6FF734FF000021A6048F2B433C1F6FF734FF000021A6048F2DC23C1F6FF734FF000021A6048F2F3
:400740002023C1F6FF734FF000021A6048F23823C1F6FF734FF000021A6048F2A823C1F6FF734FF000021A6048F20C23C1F6FF734FF000021A604FF0010003F067FE4FF0CC
:40078000010003F085FE4FF0010004F04FFF4FF0010004F06DFF4FF0010005F0A1F84FF0010005F0BDF84FF0010006F0A9F84FF0010006F0C7F84FF0010307F5E540036055
:4007C0004FF0010307F5E44101F17C010B604FF4FA6307F5E44202F17802136042F2107307F5E44000F1740003604FF0010307F5E44101F170010B604FF0040307F5E542DF
:4008000002F1540213604FF0040307F5E54000F1500003604FF0000307F5E54101F14C010B604FF0000307F5E54202F1480213604FF0000307F5E54000F1440003604FF094
:40084000000307F5E54101F140010B6003F034B94FF0010006F040F94FF0000006F03CF904F03AFB03461A4648F2A413C1F6FF731B6803FB02F404F05DFB0346E21848F2D0
:40088000A813C1F6FF731A6005F038F90346C3F1000207F5E54000F130000368D21A48F21823C1F6FF731A6005F01CFA03461A4607F5E54101F12C010B68D21A48F2D01393
:4008C000C1F6FF731A6004F0BFFF0346C3F1000207F5E54000F128000368D21A48F2C423C1F6FF731A6005F0F1FA03461A4607F5E54101F124010B68D21A48F2BC23C1F65E
:40090000FF731A6005F0D6FB03461A4607F5E54000F120000368D21A48F25823C1F6FF731A6005F0BBFC0346C3F1000207F5E54101F11C010B68D21A48F21023C1F6FF73AA
:400940001A6005F09FFD03461A4607F5E54000F118000368D21A48F22423C1F6FF731A6005F084FE0346C3F1000207F5E54101F114010B68D21A48F29423C1F6FF731A608C
:4009800048F21823C1F6FF731B68184606F016FA02460B4610461946A5A3D3E9002306F073FA02460B46104619464FF000024FF40043C4F2560306F0B5F802460B46104624
:4009C000194606F09BFC024648F26C23C1F6FF731A6048F2D013C1F6FF731B68184606F0EDF902460B461046194691A3D3E9002306F04AFA02460B46104619464FF000022A
:400A00004FF40043C4F2560306F08CF802460B461046194606F072FC024648F28823C1F6FF731A6048F2C423C1F6FF731B68184606F0C4F902460B46104619467CA3D3E91E
:400A4000002306F021FA02460B46104619464FF000024FF40043C4F2560306F063F802460B461046194606F049FC024648F22833C1F6FF731A6048F2BC23C1F6FF731B68FF
:400A8000184606F09BF902460B461046194668A3D3E9002306F0F8F902460B46104619464FF000024FF40043C4F2560306F03AF802460B461046194606F020FC024648F201
:400AC0007023C1F6FF731A6048F25823C1F6FF731B68184606F072F902460B461046194653A3D3E9002306F0CFF902460B46104619464FF000024FF40043C4F2560306F0A5
:400B000011F802460B461046194606F0F7FB024648F2E423C1F6FF731A6048F21023C1F6FF731B68184606F049F902460B46104619463FA3D3E9002306F0A6F902460B465E
:400B4000104619464FF000024FF40043C4F2560305F0E8FF02460B461046194606F0CEFB024648F22823C1F6FF731A6048F22423C1F6FF731B68184606F020F902460B465E
:400B8000104619462AA3D3E9002306F07DF902460B46104619464FF000024FF40043C4F2560305F0BFFF02460B461046194606F0A5FB024648F23033C1F6FF731A6048F2EB
:400BC0009423C1F6FF731B68184606F0F7F802460B461046194616A3D3E9002306F054F902460B46104619464FF000024FF40043C4F2560305F096FF02460B46104619462A
:400C000006F07CFB024648F20423C1F6FF731A604FF0010307F5E44202F16C02136007F5E54000F1540003680B2B40F06D8203E0F5A637BDE94D7F3F07F5E44101F16C01B6
:400C40000A684FF24843CFF6FF7303FB02F248F21823C1F6FF731B68D31A184606F0AEF802460B46104619464FF000024FF0000306F00AF902460B4614461D4648F2782310
:400C8000C1F6FF731B68184606F098F802460B46104619464FF000024FF0000306F0F4F802460B462046294605F03AFF02460B461046194606F0FAFA024648F21033C1F6A1
:400CC000FF731A6007F5E44303F16C031A684FF24843CFF6FF7303FB02F248F2D013C1F6FF731B68D31A184606F068F802460B46104619464FF000024FF0000306F0C4F81E
:400D000002460B4614461D4648F28423C1F6FF731B68184606F052F802460B46104619464FF000024FF0000306F0AEF802460B462046294605F0F4FE02460B461046194622
:400D400006F0B4FA024648F25C23C1F6FF731A6007F5E44000F16C0002684FF24843CFF6FF7303FB02F248F25823C1F6FF731B68D31A184606F022F802460B461046194645
:400D80004FF000024FF0000306F07EF802460B4614461D4648F29023C1F6FF731B68184606F00CF802460B46104619464FF000024FF0000306F068F802460B462046294668
:400DC00005F0AEFE02460B461046194606F06EFA024648F22023C1F6FF731A6007F5E44101F16C010A684FF24843CFF6FF7303FB02F248F21023C1F6FF731B68D31A1846F3
:400E000005F0DCFF02460B46104619464FF000024FF0000306F038F802460B4614461D4648F2D823C1F6FF731B68184605F0C6FF02460B46104619464FF000024FF00003CB
:400E400006F022F802460B462046294605F068FE02460B461046194606F028FA024648F23823C1F6FF731A6007F5E44303F16C031A684FF24843CFF6FF7303FB02F248F27C
:400E8000C423C1F6FF731B68D31A184605F096FF02460B46104619464FF000024FF0000305F0F2FF02460B4614461D4648F22C33C1F6FF731B68184605F080FF02460B460D
:400EC000104619464FF000024FF0000305F0DCFF02460B462046294605F022FE02460B461046194606F0E2F9024648F2B433C1F6FF731A6007F5E44000F16C0002684FF214
:400F00004843CFF6FF7303FB02F248F2BC23C1F6FF731B68D31A184605F050FF02460B46104619464FF000024FF0000305F0ACFF02460B4614461D4648F21423C1F6FF7348
:400F40001B68184605F03AFF02460B46104619464FF000024FF0000305F096FF02460B462046294605F0DCFD02460B461046194606F09CF9024648F2DC23C1F6FF731A60CE
:400F800007F5E44101F16C010A684FF24843CFF6FF7303FB02F248F22423C1F6FF731B68D31A184605F00AFF02460B46104619464FF000024FF0000305F066FF02460B4610
:400FC00014461D4648F2FC13C1F6FF731B68184605F0F4FE02460B46104619464FF000024FF0000305F050FF02460B462046294605F096FD02460B461046194606F056F95C
:40100000024648F2A823C1F6FF731A6007F5E44303F16C031A684FF24843CFF6FF7303FB02F248F29423C1F6FF731B68D31A184605F0C4FE02460B46104619464FF0000295
:401040004FF0000305F020FF02460B4614461D4648F2B033C1F6FF731B68184605F0AEFE02460B46104619464FF000024FF0000305F00AFF02460B462046294605F050FD7D
:4010800002460B461046194606F010F9024648F20C23C1F6FF731A604FF0000307F5E54000F16C0003604FF0000307F5E54101F168010B604FF0000307F5E54202F15C028C
:4010C00013604FF0000307F5E54000F1580003604FF0000307F5E54101F174010B604FF0000307F5E54202F1700213604FF0000307F5E54000F1640003606FF0130307F56F
:40110000E54101F160010B604FF0000307F5E542136007F5E54000F154000368042B40F0688207F5E44101F16C010A684FF61843CFF6FF7303FB02F248F21823C1F6FF7380
:401140001B68D31A184605F039FE02460B4610461946B3A3D3E9002305F096FE02460B4614461D4648F27823C1F6FF731B68184605F024FE02460B4610461946AAA3D3E9C6
:40118000002305F081FE02460B462046294605F0C7FC02460B461046194606F087F8024648F21033C1F6FF731A6007F5E44303F16C031A684FF61843CFF6FF7303FB02F276
:4011C00048F2D013C1F6FF731B68D31A184605F0F5FD02460B461046194691A3D3E9002305F052FE02460B4614461D4648F28423C1F6FF731B68184605F0E0FD02460B46A2
:401200001046194688A3D3E9002305F03DFE02460B462046294605F083FC02460B461046194606F043F8024648F25C23C1F6FF731A6007F5E44000F16C0002684EF69003FC
:40124000CFF6FF7303FB02F248F25823C1F6FF731B68D31A184605F0B1FD02460B46104619466FA3D3E9002305F00EFE02460B4614461D4648F29023C1F6FF731B68184669
:4012800005F09CFD02460B461046194666A3D3E9002305F0F9FD02460B462046294605F03FFC02460B461046194605F0FFFF024648F22023C1F6FF731A6007F5E44101F125
:4012C0006C010A684EF69003CFF6FF7303FB02F248F21023C1F6FF731B68D31A184605F06DFD02460B46104619464DA3D3E9002305F0CAFD02460B4614461D4648F2D823E8
:40130000C1F6FF731B68184605F058FD02460B461046194644A3D3E9002305F0B5FD02460B462046294605F0FBFB02460B461046194605F0BBFF024648F23823C1F6FF7342
:401340001A6007F5E44303F16C031A684FF26003CFF6FF7303FB02F248F2C423C1F6FF731B68D31A184605F029FD02460B46104619462BA3D3E9002305F086FD02460B46DF
:4013800014461D4648F22C33C1F6FF731B68184605F014FD02460B461046194622A3D3E9002305F071FD02460B462046294605F0B7FB02460B461046194605F077FF02465C
:4013C00048F2B433C1F6FF731A6007F5E44000F16C0002684FF26003CFF6FF7303FB02F248F2BC23C1F6FF731B68D31A184605F0E5FC02460B461046194609A3D3E90023B6
:4014000005F042FD02460B4614461D4648F21423C1F6FF731B6818460AE000BFAFF300809A9999999999C93F7B14AE47E17A843F05F0C4FC02460B4610461946BAA3D3E97F
:40144000002305F021FD02460B462046294605F067FB02460B461046194605F027FF024648F2DC23C1F6FF731A6007F5E44101F16C010A684FF24843CFF6FF7303FB02F2FD
:4014800048F22423C1F6FF731B68D31A184605F095FC02460B4610461946A5A3D3E9002305F0F2FC02460B4614461D4648F2FC13C1F6FF731B68184605F080FC02460B4623
:4014C0001046194698A3D3E9002305F0DDFC02460B462046294605F023FB02460B461046194605F0E3FE024648F2A823C1F6FF731A6007F5E44303F16C031A684FF24843E6
:40150000CFF6FF7303FB02F248F29423C1F6FF731B68D31A184605F051FC02460B461046194683A3D3E9002305F0AEFC02460B4614461D4648F2B033C1F6FF731B681846E9
:4015400005F03CFC02460B461046194676A3D3E9002305F099FC02460B462046294605F0DFFA02460B461046194605F09FFE024648F20C23C1F6FF731A604FF0000307F5C0
:40158000E54000F16C0003604FF0000307F5E54101F168010B604FF0000307F5E54202F15C0213604FF0000307F5E54000F1580003604FF0000307F5E54101F174010B60AE
:4015C0004FF0000307F5E54202F1700213604FF0000307F5E54000F1640003604FF0000307F5E54101F160010B604FF0000005F051FA07F5E54202F154021368012B40F0AF
:401600006F8107F5E54000F14400036803F1010307F5E54101F144010B6007F5E44303F16C031A684FF61843CFF6FF7303FB02F248F21823C1F6FF731B68D31A184605F00B
:40164000BDFB02460B46104619463BA3D3E9002305F01AFC02460B4614461D4648F27823C1F6FF731B68184605F0A8FB02460B46104619462CA3D3E9002305F005FC024695
:401680000B462046294605F04BFA02460B461046194605F00BFE024648F21033C1F6FF731A6007F5E44000F16C0002684FF61843CFF6FF7303FB02F248F2D013C1F6FF7320
:4016C0001B68D31A184605F079FB02460B461046194619A3D3E9002305F0D6FB02460B4614461D4648F28423C1F6FF731B68184605F064FB02460B46104619460AA3D3E9B8
:40170000002305F0C1FB02460B462046294605F007FA02460B461046194605F0C7FD02460EE000BFAFF300807B14AE47E17A843F9A9999999999C93F333333333333D33FCE
:4017400048F25C23C1F6FF731A6007F5E44101F16C010A684FF61843CFF6FF7303FB02F248F25823C1F6FF731B68D31A184605F025FB02460B461046194655A3D3E900236C
:4017800005F082FB02460B4614461D4648F29023C1F6FF731B68184605F010FB02460B46104619464CA3D3E9002305F06DFB02460B462046294605F0B3F902460B461046F3
:4017C000194605F073FD024648F22023C1F6FF731A6007F5E44303F16C031A684FF61843CFF6FF7303FB02F248F21023C1F6FF731B68D31A184605F0E1FA02460B461046C9
:40180000194633A3D3E9002305F03EFB02460B4614461D4648F2D823C1F6FF731B68184605F0CCFA02460B46104619462AA3D3E9002305F029FB02460B462046294605F0A0
:401840006FF902460B461046194605F02FFD024648F23823C1F6FF731A604FF0000307F5E54000F1740003604FF0000307F5E54101F170010B604FF0010005F0C9F84FF07F
:40188000000307F5E54202F1640213604FF0000307F5E54000F1600003604FF0010005F095F807F5E54101F144010B68322B40F390834FF0000307F5E54202F144021360DD
:4018C0004FF0020307F5E54000F15400036080E3333333333333D33F7B14AE47E17A843F07F5E54101F154010B68022B40F05C8107F5E54202F14402136803F1010307F5B1
:40190000E54000F14400036048F21823C1F6FF731B68C3F10003184605F050FA02460B46104619469CA3D3E9002305F0ADFA02460B4614461D4648F27823C1F6FF731B6896
:40194000184605F03BFA02460B461046194694A3D3E9002305F098FA02460B462046294605F0DEF802460B461046194605F09EFC024648F21033C1F6FF731A6007F5E44155
:4019800001F16C010A684FF24843CFF6FF7303FB02F248F2D013C1F6FF731B68D31A184605F00CFA02460B46104619467AA3D3E9002305F069FA02460B4614461D4648F220
:4019C0008423C1F6FF731B68184605F0F7F902460B461046194672A3D3E9002305F054FA02460B462046294605F09AF802460B461046194605F05AFC024648F25C23C1F686
:401A0000FF731A6048F25823C1F6FF731B68C3F10003184605F0D2F902460B46104619465DA3D3E9002305F02FFA02460B4614461D4648F29023C1F6FF731B68184605F0F7
:401A4000BDF902460B461046194655A3D3E9002305F01AFA02460B462046294605F060F802460B461046194605F020FC024648F22023C1F6FF731A6007F5E44303F16C037A
:401A80001A684FF24843CFF6FF7303FB02F248F21023C1F6FF731B68D31A184605F08EF902460B46104619463BA3D3E9002305F0EBF902460B4614461D4648F2D823C1F6A9
:401AC000FF731B68184605F079F902460B461046194633A3D3E9002305F0D6F902460B462046294605F01CF802460B461046194605F0DCFB024648F23823C1F6FF731A6054
:401B00004FF0000307F5E54000F1740003604FF0000307F5E54101F170010B604FF0000307F5E54202F1640213604FF0000307F5E54000F16000036003F0BCFD0346002BE0
:401B400011D14FF0000307F5E54101F144010B604FF0030307F5E54202F1540213604FF0000004F033FF03F00FFF0346002B40F030824FF0000307F5E54000F144000360A2
:401B80004FF0030307F5E54101F154010B604FF0000004F01BFF1CE29A9999999999C93F7B14AE47E17A843F07F5E54202F154021368032B40F00D8207F5E54000F1440056
:401BC000036803F1010307F5E54101F144010B604FF4A07307F5E44202F1680213606FF00E0307F5E54000F13C00036007F5E44101F168010B684FEAD372D3184FEA63035E
:401C00001A4607F5E54000F1440003689A420CDD07F5E54101F144010B68C3F1000307F5E54202F13C02136011E007F5E44000F168000368C3F1000207F5E54101F1440190
:401C40000B68D31A07F5E54202F13C02136048F21823C1F6FF731B68C3F10003184605F0ADF802460B4610461946B7A3D3E9002305F00AF902460B4614461D4648F27823C3
:401C8000C1F6FF731B68184605F098F802460B4610461946AEA3D3E9002305F0F5F802460B462046294604F03BFF02460B461046194605F0FBFA024648F21033C1F6FF7373
:401CC0001A6007F5E44303F16C031A684FF24843CFF6FF7303FB02F248F2D013C1F6FF731B68D31A184605F069F802460B461046194695A3D3E9002305F0C6F802460B4652
:401D000014461D4648F28423C1F6FF731B68184605F054F802460B46104619468CA3D3E9002305F0B1F802460B462046294604F0F7FE02460B461046194605F0B7FA02462D
:401D400048F25C23C1F6FF731A6048F25823C1F6FF731B68C3F10003184605F02FF802460B461046194678A3D3E9002305F08CF802460B4614461D4648F29023C1F6FF7348
:401D80001B68184605F01AF802460B46104619466FA3D3E9002305F077F802460B462046294604F0BDFE02460B461046194605F07DFA024648F22023C1F6FF731A6007F55D
:401DC000E44000F16C0002684FF24843CFF6FF7303FB02F248F21023C1F6FF731B68D31A184604F0EBFF02460B461046194656A3D3E9002305F048F802460B4614461D4610
:401E000048F2D823C1F6FF731B68184604F0D6FF02460B46104619464DA3D3E9002305F033F802460B462046294604F079FE02460B461046194605F039FA024648F2382331
:401E4000C1F6FF731A6007F5E54101F13C01086804F0B4FF02460B46104619464FF000024FF00003C3F6F47305F00EF802460B46104619464FF000024FF00003C4F23403AD
:401E800005F02CF902460B461046194605F00EFA034607F5E54202F17402136007F5E54303F13C03186804F089FF02460B461046194629A3D3E9002304F0E6FF02460B46B7
:401EC000104619464FF000024FF00003C4F2080305F004F902460B461046194605F0E6F9034607F5E54000F17000036007F5E54101F13C010A6846F26763C6F2666383FBE3
:401F000002034FEAE3014FEAE273CB1A07F5E54101F164010B6007F5E54303F13C031A6845F25653C5F2555383FB02014FEAE273CB1A07F5E54101F160010B6007F5E54318
:401F40000EE000BFAFF30080333333333333D33FFA7E6ABC7493683F9A9999999999F53F03F144031A6807F5E44000F1680003689A422EDD4FF0000307F5E54101F1440114
:401F80000B604FF0010307F5E54202F15402136007F5E54000F14C00036803F1010307F5E54101F14C010B6007F5E54202F14C021368072B0DDD4FF0040307F5E54000F1B4
:401FC000540003604FF0040307F5E54101F150010B6007F5E54202F150021368012B40F05F8107F5E54000F14000036803F1010307F5E54101F140010B6007F5E44303F169
:402000006C031A684FF61843CFF6FF7303FB02F248F2C423C1F6FF731B68D31A184604F0CDFE02460B461046194699A3D3E9002304F02AFF02460B4614461D4648F22C339A
:40204000C1F6FF731B68184604F0B8FE02460B461046194690A3D3E9002304F015FF02460B462046294604F05BFD02460B461046194605F01BF9024648F2B433C1F6FF73A1
:402080001A6007F5E44000F16C0002684FF61843CFF6FF7303FB02F248F2BC23C1F6FF731B68D31A184604F089FE02460B461046194677A3D3E9002304F0E6FE02460B46B3
:4020C00014461D4648F21423C1F6FF731B68184604F074FE02460B46104619466EA3D3E9002304F0D1FE02460B462046294604F017FD02460B461046194605F0D7F8024671
:4021000048F2DC23C1F6FF731A6007F5E44101F16C010A684FF61843CFF6FF7303FB02F248F22423C1F6FF731B68D31A184604F045FE02460B461046194655A3D3E9002334
:4021400004F0A2FE02460B4614461D4648F2FC13C1F6FF731B68184604F030FE02460B46104619464CA3D3E9002304F08DFE02460B462046294604F0D3FC02460B46104645
:40218000194605F093F8024648F2A823C1F6FF731A6007F5E44303F16C031A684FF61843CFF6FF7303FB02F248F29423C1F6FF731B68D31A184604F001FE02460B461046B5
:4021C000194633A3D3E9002304F05EFE02460B4614461D4648F2B033C1F6FF731B68184604F0ECFD02460B46104619462AA3D3E9002304F049FE02460B462046294604F08A
:402200008FFC02460B461046194605F04FF8024648F20C23C1F6FF731A604FF0000307F5E54000F16C0003604FF0000307F5E54101F168010B604FF0000004F0E9FB4FF092
:40224000000307F5E54202F15C0213604FF0000307F5E54000F15800036007F5E54101F140010B68322B40F37B834FF0000307F5E54202F1400213604FF0020307F5E5409D
:4022800000F1500003604FF0010004F0E1FB67E3333333333333D33F7B14AE47E17A843F07F5E54101F150010B68022B40F0708107F5E54202F14002136803F1010307F54D
:4022C000E54000F14000036007F5E44101F16C010A684FF24843CFF6FF7303FB02F248F2C423C1F6FF731B68D31A184604F066FD02460B4610461946A1A3D3E9002304F06A
:40230000C3FD02460B4614461D4648F22C33C1F6FF731B68184604F051FD02460B461046194699A3D3E9002304F0AEFD02460B462046294604F0F4FB02460B4610461946FB
:4023400004F0B4FF024648F2B433C1F6FF731A6007F5E44303F16C031A684FF63003CFF6FF7303FB02F248F2BC23C1F6FF731B68D31A184604F022FD02460B461046194690
:402380007FA3D3E9002304F07FFD02460B4614461D4648F21423C1F6FF731B68184604F00DFD02460B461046194677A3D3E9002304F06AFD02460B462046294604F0B0FB2E
:4023C00002460B461046194604F070FF024648F2DC23C1F6FF731A6007F5E44000F16C0002684FF24843CFF6FF7303FB02F248F22423C1F6FF731B68D31A184604F0DEFCE6
:4024000002460B46104619465DA3D3E9002304F03BFD02460B4614461D4648F2FC13C1F6FF731B68184604F0C9FC02460B461046194655A3D3E9002304F026FD02460B460C
:402440002046294604F06CFB02460B461046194604F02CFF024648F2A823C1F6FF731A6007F5E44101F16C010A684FF63003CFF6FF7303FB02F248F29423C1F6FF731B689F
:40248000D31A184604F09AFC02460B46104619463BA3D3E9002304F0F7FC02460B4614461D4648F2B033C1F6FF731B68184604F085FC02460B461046194633A3D3E9002360
:4024C00004F0E2FC02460B462046294604F028FB02460B461046194604F0E8FE024648F20C23C1F6FF731A604FF0000307F5E54202F16C0213604FF0000307F5E54000F17C
:40250000680003604FF0000307F5E54101F15C010B604FF0000307F5E54202F15802136003F0D8F80346002B11D14FF0000307F5E54000F1400003604FF0030307F5E54116
:4025400001F150010B604FF0000004F081FA03F009FA0346002B40F003824FF0000307F5E54202F1400213604FF0030307F5E54000F1500003604FF0000004F069FAEFE163
:402580009A9999999999C93F7B14AE47E17A843F07F5E54101F150010B68032B40F0E08107F5E54202F14002136803F1010307F5E54000F1400003604FF4D27307F5E4411A
:4025C00001F164010B606FF00E0307F5E54202F13802136007F5E44000F1640003684FEAD372D3184FEA63031A4607F5E54101F140010B689A420CDD07F5E54202F14002B9
:402600001368C3F1000307F5E54000F13800036011E007F5E44101F164010B68C3F1000207F5E54000F140000368D31A07F5E54101F138010B6007F5E44303F16C031A68BF
:402640004FF24843CFF6FF7303FB02F248F2C423C1F6FF731B68D31A184604F0AFFB02460B4610461946B6A3D3E9002304F00CFC02460B4614461D4648F22C33C1F6FF7315
:402680001B68184604F09AFB02460B4610461946ADA3D3E9002304F0F7FB02460B462046294604F03DFA02460B461046194604F0FDFD024648F2B433C1F6FF731A6007F570
:4026C000E44000F16C0002684FF63003CFF6FF7303FB02F248F2BC23C1F6FF731B68D31A184604F06BFB02460B461046194694A3D3E9002304F0C8FB02460B4614461D4673
:4027000048F21423C1F6FF731B68184604F056FB02460B46104619468BA3D3E9002304F0B3FB02460B462046294604F0F9F902460B461046194604F0B9FD024648F2DC230F
:40274000C1F6FF731A6007F5E44101F16C010A684FF24843CFF6FF7303FB02F248F22423C1F6FF731B68D31A184604F027FB02460B461046194676A3D3E9002304F084FB88
:4027800002460B4614461D4648F2FC13C1F6FF731B68184604F012FB02460B46104619466DA3D3E9002304F06FFB02460B462046294604F0B5F902460B461046194604F082
:4027C00075FD024648F2A823C1F6FF731A6007F5E44303F16C031A684FF63003CFF6FF7303FB02F248F29423C1F6FF731B68D31A184604F0E3FA02460B461046194654A3D0
:40280000D3E9002304F040FB02460B4614461D4648F2B033C1F6FF731B68184604F0CEFA02460B46104619464BA3D3E9002304F02BFB02460B462046294604F071F9024608
:402840000B461046194604F031FD024648F20C23C1F6FF731A6007F5E54000F13800036848F68902C8F6880282FB0312D2184FEAE2024FEAE373D31A07F5E54202F16C027D
:40288000136007F5E54303F138031A6845F25653C5F2555383FB02014FEAE273CB1A07F5E54101F168010B604FF0000307F5E54202F15C0213604FF0000307F5E54000F138
:4028C0005800036007F5E54101F140010A6807F5E44000F1640003689A4241DD4FF0000307F5E54101F140010B604FF0010307F5E54202F15002136007F5E54000F1480002
:40290000036803F1010307F5E54101F148010B6007F5E54202F148021368072B20DD4FF0040307F5E54000F1540003604FF0040307F5E54101F150010B6011E0AFF300802A
:402940009A9999999999D93F7B14AE47E17A743F333333333333D33FFA7E6ABC7493683F48F26C23C1F6FF731B6818464FF0804104F0D6FE03461846FDF79EFB034603F17A
:402980000A0248F23433C1F6FF731A6048F23433C1F6FF731B68002B06DA48F23433C1F6FF734FF000021A6048F23433C1F6FF731B683B2B06DD48F23433C1F6FF734FF04B
:4029C0003B021A6048F28823C1F6FF731B6818464FF0804104F0A4FE03461846FDF76CFB034603F10A0248F21433C1F6FF731A6048F21433C1F6FF731B68002B06DA48F2BA
:402A00001433C1F6FF734FF000021A6048F21433C1F6FF731B683B2B06DD48F21433C1F6FF734FF03B021A6048F21433C1F6FF73196848F23433C1F6FF73186807F5AB42F7
:402A400002F15802A2F10C020B464FEA03135B1A4FEA83031B1832F813301BB207F5E54000F17400026802FB03F048F21433C1F6FF73196848F23433C1F6FF731C6807F5D2
:402A8000645202F13802A2F104020B464FEA03135B1A4FEA83031B1932F813301BB207F5E54101F170010A6802FB03F3C318184604F02EFD024648F2B823C1F6FF731A6016
:402AC00048F21433C1F6FF73196848F23433C1F6FF73186807F5E75202F11802A2F15C020B464FEA03135B1A4FEA83031B1832F813301BB207F5E54000F17400026802FB00
:402B000003F048F21433C1F6FF73196848F23433C1F6FF731C6807F17802A2F174020B464FEA03135B1A4FEA83031B1932F813301BB207F5E54101F170010A6802FB03F382
:402B4000C318184604F0E4FC024648F2BC33C1F6FF731A6048F2B823C1F6FF731B6818464FF00001C4F27A4104F0DAFD03461A4648F2B823C1F6FF731A6048F2BC33C1F658
:402B8000FF731B6818464FF00001C4F27A4104F0C7FD03461A4648F2BC33C1F6FF731A6048F21033C1F6FF731B68184604F006F904460D4648F2B823C1F6FF731B681846AE
:402BC0004FF00001C4F2965104F0F6FC0346184604F006F902460B461046194658A3D3E9002304F07BFA02460B462046294603F099FF02460B461046194604F057FB024612
:402C000048F21033C1F6FF731A6048F25C23C1F6FF731B68184604F0D1F804460D4648F2BC33C1F6FF731B6818464FF00001C4F2965104F0C1FC0346184604F0D1F80246EA
:402C40000B46104619463EA3D3E9002304F046FA02460B462046294603F064FF02460B461046194604F022FB024648F25C23C1F6FF731A6048F22833C1F6FF731B681846F4
:402C80004FF0804104F04CFD03461846FDF714FA034603F10A0248F2C023C1F6FF731A6048F2C023C1F6FF731B68002B06DA48F2C023C1F6FF734FF000021A6048F2C02333
:402CC000C1F6FF731B683B2B06DD48F2C023C1F6FF734FF03B021A6048F27023C1F6FF731B6818464FF0804104F01AFD03461846FDF7E2F9034603F10A0248F20023C1F6EE
:402D0000FF731A6048F20023C1F6FF731B68002B06DA48F20023C1F6FF734FF000021A6048F20023C1F6FF731B683B2B0CDD48F20023C1F6FF734FF03B021A6004E000BFDB
:402D4000703D0AD7A3F0814048F20023C1F6FF73196848F2C023C1F6FF73186807F5AB4202F15802A2F10C020B464FEA03135B1A4FEA83031B1832F813301BB207F5E5406B
:402D800000F16C00026802FB03F048F20023C1F6FF73196848F2C023C1F6FF731C6807F5645202F13802A2F104020B464FEA03135B1A4FEA83031B1932F813301BB207F5D5
:402DC000E54101F168010A6802FB03F3C318184604F09EFB024648F24C33C1F6FF731A6048F20023C1F6FF73196848F2C023C1F6FF73186807F5E75202F11802A2F15C0283
:402E00000B464FEA03135B1A4FEA83031B1832F813301BB207F5E54000F16C00026802FB03F048F20023C1F6FF73196848F2C023C1F6FF731C6807F17802A2F174020B46DC
:402E40004FEA03135B1A4FEA83031B1932F813301BB207F5E54101F168010A6802FB03F3C318184604F054FB024648F27423C1F6FF731A6048F24C33C1F6FF731B68184684
:402E80004FF00001C4F27A4104F04AFC03461A4648F24C33C1F6FF731A6048F27423C1F6FF731B6818464FF00001C4F27A4104F037FC03461A4648F27423C1F6FF731A6052
:402EC00048F2B433C1F6FF731B68184603F076FF04460D4648F24C33C1F6FF731B6818464FF00001C4F2965104F066FB0346184603F076FF02460B461046194658A3D3E999
:402F0000002304F0EBF802460B462046294603F009FE02460B461046194604F0C7F9024648F2B433C1F6FF731A6048F2DC23C1F6FF731B68184603F041FF04460D4648F2D4
:402F40007423C1F6FF731B6818464FF00001C4F2965104F031FB0346184603F041FF02460B46104619463EA3D3E9002304F0B6F802460B462046294603F0D4FD02460B465E
:402F80001046194604F092F9024648F2DC23C1F6FF731A6048F2E423C1F6FF731B6818464FF0804104F0BCFB03461846FDF784F8034603F10A0248F2A423C1F6FF731A60BF
:402FC00048F2A423C1F6FF731B68002B06DA48F2A423C1F6FF734FF000021A6048F2A423C1F6FF731B683B2B06DD48F2A423C1F6FF734FF03B021A6048F22823C1F6FF7370
:403000001B6818464FF0804104F08AFB03461846FDF752F8034603F10A0248F21C33C1F6FF731A6048F21C33C1F6FF731B68002B06DA48F21C33C1F6FF734FF000021A602F
:4030400048F21C33C1F6FF731B683B2B0CDD48F21C33C1F6FF734FF03B021A6004E000BF703D0AD7A3F0814048F21C33C1F6FF73196848F2A423C1F6FF73186807F5AB42D9
:4030800002F15802A2F10C020B464FEA03135B1A4FEA83031B1832F813301BB207F5E54000F16400026802FB03F048F21C33C1F6FF73196848F2A423C1F6FF731C6807F534
:4030C000645202F13802A2F104020B464FEA03135B1A4FEA83031B1932F813301BB207F5E54101F160010A6802FB03F3C318184604F00EFA024648F24833C1F6FF731A6063
:4031000048F21C33C1F6FF73196848F2A423C1F6FF73186807F5E75202F11802A2F15C020B464FEA03135B1A4FEA83031B1832F813301BB207F5E54000F16400026802FB61
:4031400003F048F21C33C1F6FF73196848F2A423C1F6FF731C6807F17802A2F174020B464FEA03135B1A4FEA83031B1932F813301BB207F5E54101F160010A6802FB03F3E4
:40318000C318184604F0C4F9024648F2E823C1F6FF731A6048F24833C1F6FF731B6818464FF00001C4F27A4104F0BAFA03461A4648F24833C1F6FF731A6048F2E823C1F6E0
:4031C000FF731B6818464FF00001C4F27A4104F0A7FA03461A4648F2E823C1F6FF731A6048F22023C1F6FF731B68184603F0E6FD04460D4648F24833C1F6FF731B681846EC
:403200004FF00001C4F2965104F0D6F90346184603F0E6FD02460B461046194658A3D3E9002303F05BFF02460B462046294603F079FC02460B461046194604F037F802466D
:4032400048F22023C1F6FF731A6048F23823C1F6FF731B68184603F0B1FD04460D4648F2E823C1F6FF731B6818464FF00001C4F2965104F0A1F90346184603F0B1FD024607
:403280000B46104619463EA3D3E9002303F026FF02460B462046294603F044FC02460B461046194604F002F8024648F23823C1F6FF731A6048F23033C1F6FF731B6818462C
:4032C0004FF0804104F02CFA03461846FCF7F4FE034603F10A0248F21C23C1F6FF731A6048F21C23C1F6FF731B68002B06DA48F21C23C1F6FF734FF000021A6048F21C23BD
:40330000C1F6FF731B683B2B06DD48F21C23C1F6FF734FF03B021A6048F20423C1F6FF731B6818464FF0804104F0FAF903461846FCF7C2FE034603F10A0248F2E813C1F61F
:40334000FF731A6048F2E813C1F6FF731B68002B06DA48F2E813C1F6FF734FF000021A6048F2E813C1F6FF731B683B2B0CDD48F2E813C1F6FF734FF03B021A6004E000BF35
:40338000703D0AD7A3F0814048F2E813C1F6FF73196848F21C23C1F6FF73186807F5AB4202F15802A2F10C020B464FEA03135B1A4FEA83031B1832F813301BB207F5E540F1
:4033C00000F15C00026802FB03F048F2E813C1F6FF73196848F21C23C1F6FF731C6807F5645202F13802A2F104020B464FEA03135B1A4FEA83031B1932F813301BB207F56B
:40340000E54101F158010A6802FB03F3C318184604F07EF8024648F25423C1F6FF731A6048F2E813C1F6FF73196848F21C23C1F6FF73186807F5E75202F11802A2F15C0243
:403440000B464FEA03135B1A4FEA83031B1832F813301BB207F5E54000F15C00026802FB03F048F2E813C1F6FF73196848F21C23C1F6FF731C6807F17802A2F174020B4672
:403480004FEA03135B1A4FEA83031B1932F813301BB207F5E54101F158010A6802FB03F3C318184604F034F8024648F2B833C1F6FF731A6048F25423C1F6FF731B68184625
:4034C0004FF00001C4F27A4104F02AF903461A4648F25423C1F6FF731A6048F2B833C1F6FF731B6818464FF00001C4F27A4104F017F903461A4648F2B833C1F6FF731A60B2
:4035000048F2A823C1F6FF731B68184603F056FC04460D4648F25423C1F6FF731B6818464FF00001C4F2965104F046F80346184603F056FC02460B4610461946BEA3D3E979
:40354000002303F0CBFD02460B462046294603F0E9FA02460B461046194603F0A7FE024648F2A823C1F6FF731A6048F20C23C1F6FF731B68184603F021FC04460D4648F2F9
:40358000B833C1F6FF731B6818464FF00001C4F2965104F011F80346184603F021FC02460B4610461946A4A3D3E9002303F096FD02460B462046294603F0B4FA02460B46E3
:4035C0001046194603F072FE024648F20C23C1F6FF731A6048F2B433C1F6FF731A6845F6C0539A4206DD48F2B433C1F6FF7345F6C0521A6048F2B433C1F6FF731A6848F66B
:40360000D023CFF6FF739A4208DA48F2B433C1F6FF7348F6D022CFF6FF721A6048F2DC23C1F6FF731A6845F6C0539A4206DD48F2DC23C1F6FF7345F6C0521A6048F2DC2325
:40364000C1F6FF731A6848F6D023CFF6FF739A4208DA48F2DC23C1F6FF7348F6D022CFF6FF721A6048F21033C1F6FF731B6803F5BB5202F1100248F21033C1F6FF731A60E4
:4036800048F21033C1F6FF731A6807F5E44000F1780003689A4209DA48F21033C1F6FF7307F5E44101F178010A681A6048F21033C1F6FF731A6807F5E44000F174000368F9
:4036C0009A4209DD48F21033C1F6FF7307F5E44101F174010A681A6048F25C23C1F6FF731B68C3F5BB5202F1100248F25C23C1F6FF731A6048F25C23C1F6FF731A6807F503
:40370000E44000F1780003689A4209DA48F25C23C1F6FF7307F5E44101F178010A681A6048F25C23C1F6FF731A6807F5E44000F1740003689A4209DD48F25C23C1F6FF7380
:4037400007F5E44101F174010A681A6048F2B433C1F6FF731B68C3F5BB5202F1100248F2B433C1F6FF731A6048F2B433C1F6FF731A6807F5E44000F1780003689A4209DAFB
:4037800048F2B433C1F6FF7307F5E44101F178010A681A6048F2B433C1F6FF731A6807F5E44000F1740003689A4209DD48F2B433C1F6FF7307F5E44101F174010A681A600B
:4037C00048F2DC23C1F6FF731B6803F5BB5202F1100248F2DC23C1F6FF731A6048F2DC23C1F6FF731A6807F5E44000F1780003689A4209DA48F2DC23C1F6FF7307F5E441E4
:4038000001F178010A681A6048F2DC23C1F6FF731A6807F5E44000F1740003689A420FDD48F2DC23C1F6FF7307F5E44101F174010A681A6004E000BF703D0AD7A3F081403A
:4038400048F22023C1F6FF731B6803F5BB5202F1100248F22023C1F6FF731A6048F22023C1F6FF731A6807F5E44000F1780003689A4209DA48F22023C1F6FF7307F5E44153
:4038800001F178010A681A6048F22023C1F6FF731A6807F5E44000F1740003689A4209DD48F22023C1F6FF7307F5E44101F174010A681A6048F23823C1F6FF731B68C3F5C4
:4038C000BB5202F1100248F23823C1F6FF731A6048F23823C1F6FF731A6807F5E44000F1780003689A4209DA48F23823C1F6FF7307F5E44101F178010A681A6048F23823C0
:40390000C1F6FF731A6807F5E44000F1740003689A4209DD48F23823C1F6FF7307F5E44101F174010A681A6048F2A823C1F6FF731B6803F5BB5202F1100248F2A823C1F681
:40394000FF731A6048F2A823C1F6FF731A6807F5E44000F1780003689A4209DA48F2A823C1F6FF7307F5E44101F178010A681A6048F2A823C1F6FF731A6807F5E44000F191
:40398000740003689A4209DD48F2A823C1F6FF7307F5E44101F174010A681A6048F20C23C1F6FF731B68C3F5BB5202F1100248F20C23C1F6FF731A6048F20C23C1F6FF7347
:4039C0001A6807F5E44000F1780003689A4209DA48F20C23C1F6FF7307F5E44101F178010A681A6048F20C23C1F6FF731A6807F5E44000F1740003689A4209DD48F20C2359
:403A0000C1F6FF7307F5E44101F174010A681A6048F21033C1F6FF731B689BB2184600F0C9FC48F25C23C1F6FF731B689BB2184600F0D0FC48F2B433C1F6FF731B689BB27A
:403A4000184600F0ADFE48F2DC23C1F6FF731B689BB2184600F0B4FE48F22023C1F6FF731B689BB2184601F031FB48F23823C1F6FF731B689BB2184601F038FB48F2A82315
:403A8000C1F6FF731B689BB2184601F049FC48F20C23C1F6FF731B689BB2184602F010FF00F018FD0346002B06D148F2AC13C1F6FF734FF001021A6048F2AC13C1F6FF7368
:403AC0001B68002B3CF4C4AE48F2C810C0F2000001F08CF84FF0000002F056FF4FF0000002F074FF4FF0000002F092FF4FF0010002F0D0FF4FF0000000F0A8FC4FF000003E
:403B000000F0C6FC4FF0000001F090FD4FF0000001F0AEFD4FF0000001F0E2FE4FF0000001F0FEFE4FF0000002F0EAFE4FF0000002F008FF184607F53E7707F5E047BD4679
:403B4000B0BD00BFAFF3008080B400AFFEE700BF80B586B000AF40F20103C0F200037B614FF2FC43C0F200033B6140F20103C0F200037B614FF2FC43C0F200033B613BE00B
:403B80003B691B68FB603B695B68BB603B699B683B604FF000037B600FE0FB681A68BB681A60BB6803F10403BB60FB6803F10403FB607B6803F104037B607A683B689A4225
:403BC000EBD13B69DB683B604FF000037B600BE0BB684FF000021A60BB6803F10403BB607B6803F104037B607A683B689A42EFD13B6903F110033B617B69002B0CBF00234A
:403C00000123DBB27A6902F1FF327A61002BB7D103F098FEFCF7C8FBFEE700BF80B582B000AF4EF60C53CEF200034FF48062C0F2FA521A604EF61453CEF200034EF614522A
:403C4000CEF20002126842F400721A604FF000037B6019E07B68032B07D840F20003C0F200037A6853F8223003E043F64933C0F2000348F20002C1F6FF72796842F821305A
:403C80007B6803F101037B607B682F2BE2D947F2BC63C4F200031B78DAB248F20413C1F6FF731A704EF60853CEF2000348F20002C1F6FF721A6000F089F948F20013C1F66C
:403CC000FF734FF000021A6007F10807BD4680BD80B582B000AF7860396078684FF000013A6803F05EFE07F10807BD4680BD00BF80B584B000AFF860B9607A60F868B968CE
:403D00007A6803F045FE07F11007BD4680BD00BF80B483B000AF0346FB71FEE780B487B000AF786039604FF000033B614FF000037B612CE07B694FEA83037A68D3181B6827
:403D4000BB60BB68FB73BB6823F0FF03BB6017E03B694FEA43033A68D3181B781A46BB68D3183A694FEA420239688A1852781A703B6903F101033B61FB7B03F1FF33FB73A3
:403D8000FB7B002BE4D17B6903F101037B617B69292BCFD907F11C07BD4680BC704700BF80B582B000AF4FF48143C4F200034FF000021A8044F28203C4F200034FF0580287
:403DC0001A7044F28403C4F200034FF001021A8044F28603C4F200034FF018021A7044F28803C4F200034FF006021A8044F28A03C4F200034FF018021A7044F28C03C4F257
:403E000000034FF006021A8044F28E03C4F200034FF018021A7044F29003C4F200034FF033021A8044F29203C4F200034FF018021A7044F29403C4F2000340F6B7321A8005
:403E400044F29603C4F200034FF019021A704FF48643C4F200034FF002021A704FF040234FF008021A704FF48443C4F200034FF003021A7044F2A163C4F200034FF4847212
:403E8000C4F600121278D2B21A7044F22223C4F200034FF40D721A8044F22023C4F2000341F251221A804FF00003FB704FF019037B6019E0FB784FEA4303DAB244F22523C4
:403EC000C4F200031B78DBB203F00103DBB21343DBB203F00303FB704FF4F07000F00CFB7B6803F1FF337B607B68002B02D0FB78032BDFD17B68002B03D14FF00300FFF755
:403F000007FF44F20403C4F200034FF480721A8044F20403C4F200034FF007021A7044F20603C4F200034FF000021A7044F20803C4F200034FF048021A7044F20403C4F22B
:403F400000034FF000021A7044F20103C4F200034FF002021A7044F2A233C4F2000344F2A232C4F200021278D2B242F03F02D2B21A7007F10807BD4680BD00BF80B483B031
:403F800000AF40F2CF13C4F600131B78FB7145F66E03C4F20003FA7902F00702D2B21A7045F66F03C4F20003FA794FEA1212D2B21A7045F67603C4F200034FF044021A70D1
:403FC00007F10C07BD4680BC704700BF80B586B000AF72B64FF49043C4F200034FF001021A70FFF7DDFE44F2E863C4F2000344F2E862C4F200021278D2B242F00402D2B217
:404000001A704FF00003FB7519E0FA7D13464FEA43039B184FEA43034FF23442C0F200029B183B613B691A683B699B889BB210461946FFF74DFEFB7D03F10103FB75FB7D88
:40404000082BE2D94FF00003FB7523E0FA7D13464FEA83039B184FEA43034FF26C42C0F200029B18FB60FB681B68BB60FB685B687B60FB681A7A5B7A4FEA032313437B80AD
:404080007B88B86879681A46FFF732FEFB7D03F10103FB75FB7D042BD8D94FF090404FF0A801C4F60001FFF739FE45F20303C4F2010345F20302C4F201021278D2B242F033
:4040C0000202D2B21A7045F21303C4F2010345F21302C4F201021278D2B242F00202D2B21A7044F2A033C4F2000344F2A032C4F200021278D2B242F04002D2B21A7044F208
:40410000C233C4F2000344F2C232C4F200021278D2B242F01002D2B21A704FF4A240C4F2000041F25841C4F600014FF00A02FFF7DFFD45F2C010C4F2000041F26441C4F6C1
:4041400000014FF00A02FFF7D3FD45F2F210C4F2000041F27041C4F600014FF00802FFF7C7FD45F21010C4F2000041F27841C4F600014FF00A02FFF7BBFD45F22010C4F2D2
:40418000000041F28441C4F600014FF00A02FFF7AFFD45F23210C4F2000041F29041C4F600014FF00802FFF7A3FD45F24010C4F2000041F29841C4F600014FF00A02FFF74D
:4041C00097FD45F25010C4F2000041F2A441C4F600014FF00A02FFF78BFD45F26010C4F2000041F2B041C4F600014FF00A02FFF77FFD40F65B03C4F201034FF084021A70AC
:4042000044F22233C4F2000344F22232C4F200021278D2B242F00802D2B21A70FFF7AEFE44F2B030C4F2000044F2A031C4F200014FF00E02FFF75CFD07F11807BD4680BD7F
:4042400080B500AF48F2B013C1F6FF731B78002B08D100F00BF848F2B013C1F6FF734FF001021A7000F064F880BD00BF80B582B000AF46F27643C4F200031B78DBB223F07D
:404280003F03FB7146F27643C4F20003FA7942F00902D2B21A7046F29643C4F2000346F29642C4F200021278D2B242F00102D2B21A7046F29743C4F2000346F29742C4F273
:4042C00000021278D2B242F00102D2B21A7042F6E06000F041F842F6E06000F05BF84FF05A0000F067F84FF05A0000F073F84FF0000000F07FF800F009F90346BB7146F2EE
:404300009643C4F2000346F29642C4F200021278D2B242F01002D2B21A70BB79184600F0F9F800F029F807F10807BD4680BD00BF80B400AF46F27643C4F2000346F27642BC
:40434000C4F200021278D2B262F07F02D2B21A70BD4680BC704700BF80B483B000AF0346FB8046F60C03C4F20003FA881A8007F10C07BD4680BC704780B500AF01E000F031
:4043800059F800F047F8034603F01003002BF6D180BD00BF80B483B000AF0346FB8046F68C03C4F20003FA881A8007F10C07BD4680BC704780B483B000AF0346FB8046F6AF
:4043C0004C03C4F20003FA881A8007F10C07BD4680BC704780B483B000AF0346FB8046F66C03C4F20003FA881A8007F10C07BD4680BC704780B483B000AF0346FB7146F23A
:404400008643C4F20003FA791A7007F10C07BD4680BC704780B483B000AF46F26643C4F200031B78FB71FB79184607F10C07BD4680BC704780B400AF46F6AC03C4F20003F3
:404440001B889BB21846BD4680BC704780B485B000AF0346FB7145F22013C4F200031B78DBB223F02003FB7345F22013C4F20003FA794FEA4212D2B202F02002D1B2FA7B91
:404480000A43D2B21A7007F11407BD4680BC704780B485B000AF0346FB7145F2C013C4F200031B78DBB223F02003FB7345F2C013C4F20003FA794FEA4212D2B202F02002E9
:4044C000D1B2FA7B0A43D2B21A7007F11407BD4680BC704780B400AF45F2C113C4F200031B78DBB24FEAD313DBB21846BD4680BC704700BF000000000230800800F00580AB
:4045000000BF013800467FF4FCAF7047EFF3108072B6704780F31088704700BFAFF3008080B483B000AF0346FB7101BE07F10C07BD4680BC704700BF80B582B000AF78603C
:404540000BE048F21813C1F6FF731B681846FFF7D3FF7B68A3F500437B607B68B3F5004FEFD848F21013C1F6FF731B687A6802FB03F31846FFF7C0FF07F10807BD4680BDA7
:4045800080B584B000AF03463960FB714EF60853CEF200031B68FB60FB791F2B03D94FF00000FFF7BDFFFB7903F01F0303F110034FEA8303FA68D3181B68BB60FB7903F029
:4045C0001F0303F110034FEA8303FA68D3183A681A60BB68184607F11007BD4680BD00BF80B582B000AF02460B46FA71BB71BB79072B03D94FF00000FFF792FFFB791F2BCF
:4046000003D94FF00000FFF78BFFFB7903F01F0303F1604303F56443BA794FEA4212D2B21A7007F10807BD4680BD00BF80B500AF48F2B113C1F6FF731B78002B08D100F0BA
:404640000BF848F2B113C1F6FF734FF001021A7000F064F880BD00BF80B582B000AF46F27C43C4F200031B78DBB223F03F03FB7146F27C43C4F20003FA7942F00902D2B271
:404680001A7046F29443C4F2000346F29442C4F200021278D2B242F00102D2B21A7046F29543C4F2000346F29542C4F200021278D2B242F00102D2B21A7042F6E06000F048
:4046C00041F842F6E06000F05BF84FF05A0000F067F84FF05A0000F073F84FF0000000F07FF8FFF713FF0346BB7146F29C43C4F2000346F29C42C4F200021278D2B242F0E9
:404700001002D2B21A70BB791846FFF703FF00F029F807F10807BD4680BD00BF80B400AF46F27C43C4F2000346F27C42C4F200021278D2B262F07F02D2B21A70BD4680BC49
:40474000704700BF80B483B000AF0346FB8046F60803C4F20003FA881A8007F10C07BD4680BC704780B500AF01E000F059F800F047F8034603F01003002BF6D180BD00BF5A
:4047800080B483B000AF0346FB8046F68803C4F20003FA881A8007F10C07BD4680BC704780B483B000AF0346FB8046F64803C4F20003FA881A8007F10C07BD4680BC70474B
:4047C00080B483B000AF0346FB8046F66803C4F20003FA881A8007F10C07BD4680BC704780B483B000AF0346FB7146F28C43C4F20003FA791A7007F10C07BD4680BC7047D9
:4048000080B483B000AF46F26C43C4F200031B78FB71FB79184607F10C07BD4680BC704780B400AF46F6A803C4F200031B889BB21846BD4680BC704780B500AF44F6187380
:40484000C4F2000344F61872C4F200021278D2B202F00102D2B21A7044F61A73C4F2000344F61A72C4F200021278D2B222F00302D2B21A7044F62373C4F2000344F6237269
:40488000C4F200021278D2B222F03002D2B21A7044F62373C4F2000344F62372C4F200021278D2B242F03002D2B21A7044F62373C4F2000344F62372C4F200021278D2B232
:4048C00022F00F02D2B21A7044F62373C4F2000344F62372C4F200021278D2B242F00F02D2B21A7044F61973C4F2000344F61972C4F200021278D2B242F00102D2B21A70CB
:4049000040F2E73000F06CF840F2E73000F07AF84FF0080000F048F880BD00BF80B400AF44F2A333C4F2000344F2A332C4F200021278D2B242F00402D2B21A7044F2B333E1
:40494000C4F2000344F2B332C4F200021278D2B242F00402D2B21A7044F61873C4F2000344F61872C4F200021278D2B242F00102D2B21A70BD4680BC704700BF80B500AF73
:4049800048F2B213C1F6FF731B78002B08D1FFF753FF48F2B213C1F6FF734FF001021A70FFF7BCFF80BD00BF80B483B000AF0346FB7144F61B73C4F20003FA791A7007F10E
:4049C0000C07BD4680BC704780B400AF44F61C73C4F200031B889BB21846BD4680BC704780B485B000AF0346FB80FB88FB8144F61C73C4F20003FA891A8007F11407BD4675
:404A000080BC704780B483B000AF0346FB8044F61E73C4F20003FA881A8007F10C07BD4680BC704780B582B000AF786000F042F8786800F00BF84FF0010000F01BF800F0EA
:404A40002DF807F10807BD4680BD00BF80B485B000AF78604EF60853CEF200031B68FB60FB6803F144037A681A6007F11407BD4680BC704780B483B000AF0346FB714EF2CD
:404A80000143CEF20003FA794FEA4212D2B21A7007F10C07BD4680BC704700BF80B400AF4FF46143CEF200034FF002021A60BD4680BC704780B400AF4EF28013CEF2000368
:404AC0004FF002021A60BD4680BC704780B500AF48F2B313C1F6FF731B78002B08D100F00BF848F2B313C1F6FF734FF001021A7000F016F880BD00BF80B400AF46F284439B
:404B0000C4F200034FF072021A7046F28843C4F200034FF000021A70BD4680BC704700BF80B582B000AFFFF7F1FC0346FB7146F29443C4F2000346F29442C4F2000212787D
:404B4000D2B242F02002D2B21A7046F29843C4F2000346F29842C4F200021278D2B242F01002D2B21A7000F079F8FB791846FFF7D1FC07F10807BD4680BD00BF80B400AF7A
:404B800046F27843C4F200031B78DBB21846BD4680BC704780B483B000AF0346FB7146F27843C4F20003FA791A7007F10C07BD4680BC704780B483B000AF0346FB7100BFD6
:404BC00046F26843C4F200031B78DBB203F02003002BF5D146F25043C4F20003FA791A7007F10C07BD4680BC704700BF80B584B000AF78604FF00003FB8148F2B313C1F64C
:404C0000FF731B78002B11D00AE0FB897A68D3181B781846FFF7CEFFFB8903F10103FB81FB897A68D3181B78002BEED107F11007BD4680BD80B500AFFFF7A0FF034643F06A
:404C40000103DBB21846FFF7A5FF46F28443C4F200034FF06F021A7080BD00BF80B400AF44F2A233C4F2000344F2A232C4F200021278D2B242F00802D2B21A7044F2B233E1
:404C8000C4F2000344F2B232C4F200021278D2B242F00802D2B21A70BD4680BC704700BF80B582B000AF786000F042F8786800F00BF84FF0020000F01BF800F02DF807F120
:404CC0000807BD4680BD00BF80B485B000AF78604EF60853CEF200031B68FB60FB6803F148037A681A6007F11407BD4680BC704780B483B000AF0346FB714EF20243CEF25F
:404D00000003FA794FEA4212D2B21A7007F10C07BD4680BC704700BF80B400AF4FF46143CEF200034FF004021A60BD4680BC704780B400AF4EF28013CEF200034FF00402A2
:404D40001A60BD4680BC704780B500AF44F62473C4F2000344F62472C4F200021278D2B202F00102D2B21A7044F62673C4F2000344F62672C4F200021278D2B222F0030281
:404D8000D2B21A7044F62F73C4F2000344F62F72C4F200021278D2B222F03002D2B21A7044F62F73C4F2000344F62F72C4F200021278D2B242F03002D2B21A7044F62F73D9
:404DC000C4F2000344F62F72C4F200021278D2B222F00F02D2B21A7044F62F73C4F2000344F62F72C4F200021278D2B242F00F02D2B21A7044F62573C4F2000344F6257245
:404E0000C4F200021278D2B242F00102D2B21A704FF0630000F06CF84FF0630000F07AF84FF0080000F048F880BD00BF80B400AF44F2A333C4F2000344F2A332C4F2000291
:404E40001278D2B242F00802D2B21A7044F2B333C4F2000344F2B332C4F200021278D2B242F00802D2B21A7044F62473C4F2000344F62472C4F200021278D2B242F0010285
:404E8000D2B21A70BD4680BC704700BF80B500AF48F2B413C1F6FF731B78002B08D1FFF753FF48F2B413C1F6FF734FF001021A70FFF7BCFF80BD00BF80B483B000AF034640
:404EC000FB7144F62773C4F20003FA791A7007F10C07BD4680BC704780B400AF44F62873C4F200031B889BB21846BD4680BC704780B485B000AF0346FB80FB88FB8144F6F1
:404F00002873C4F20003FA891A8007F11407BD4680BC704780B483B000AF0346FB8044F62A73C4F20003FA881A8007F10C07BD4680BC704780B400AF44F62A73C4F20003FD
:404F40001B8844F62C73C4F200031B889BB21846BD4680BC704700BF80B500AF48F2B513C1F6FF731B78002B08D100F00BF848F2B513C1F6FF734FF001021A7000F064F81D
:404F800080BD00BF80B582B000AF46F27E43C4F200031B78DBB223F03F03FB7146F27E43C4F20003FA7942F00902D2B21A7046F29E43C4F2000346F29E42C4F200021278B0
:404FC000D2B242F00102D2B21A7046F29F43C4F2000346F29F42C4F200021278D2B242F00102D2B21A7042F6E06000F041F842F6E06000F05BF84FF05A0000F067F84FF072
:405000005A0000F073F84FF0000000F07FF8FFF77DFA0346BB7146F29E43C4F2000346F29E42C4F200021278D2B242F01002D2B21A70BB791846FFF76DFA00F029F807F139
:405040000807BD4680BD00BF80B400AF46F27E43C4F2000346F27E42C4F200021278D2B262F07F02D2B21A70BD4680BC704700BF80B483B000AF0346FB8046F61C03C4F24E
:405080000003FA881A8007F10C07BD4680BC704780B500AF01E000F059F800F047F8034603F01003002BF6D180BD00BF80B483B000AF0346FB8046F69C03C4F20003FA886E
:4050C0001A8007F10C07BD4680BC704780B483B000AF0346FB8046F65C03C4F20003FA881A8007F10C07BD4680BC704780B483B000AF0346FB8046F67C03C4F20003FA88FA
:405100001A8007F10C07BD4680BC704780B483B000AF0346FB7146F28E43C4F20003FA791A7007F10C07BD4680BC704780B483B000AF46F26E43C4F200031B78FB71FB791E
:40514000184607F10C07BD4680BC704780B400AF46F6BC03C4F200031B889BB21846BD4680BC704780B500AF48F2B613C1F6FF731B78002B08D100F00BF848F2B613C1F6A1
:40518000FF734FF001021A7000F08AF880BD00BF80B582B000AF4FF49E43C4F200034FF49E42C4F200021278D2B242F00202D2B21A7044F60273C4F200031B78DBB223F088
:4051C0007003FB7144F60273C4F20003FA7942F01002D2B21A7044F60B73C4F2000344F60B72C4F200021278D2B222F03002D2B21A7044F60B73C4F2000344F60B72C4F285
:4052000000021278D2B242F03002D2B21A7044F60B73C4F2000344F60B72C4F200021278D2B222F00F02D2B21A7044F60B73C4F2000344F60B72C4F200021278D2B242F0AD
:405240000F02D2B21A7042F6E06000F059F84FF05A0000F065F84FF0000000F071F844F2A333C4F2000344F2A332C4F200021278D2B242F00102D2B21A7044F60173C4F29B
:40528000000344F60172C4F200021278D2B242F00102D2B21A7007F10807BD4680BD00BF80B400AF44F2A333C4F2000344F2A332C4F200021278D2B242F00102D2B21A7073
:4052C00044F2B333C4F2000344F2B332C4F200021278D2B242F00102D2B21A704FF49E43C4F200034FF49E42C4F200021278D2B242F00102D2B21A70BD4680BC704700BFF7
:4053000080B483B000AF0346FB8044F60473C4F20003FA881A8007F10C07BD4680BC704780B483B000AF0346FB8044F60673C4F20003FA881A8007F10C07BD4680BC7047A9
:4053400080B483B000AF0346FB7144F60373C4F20003FA791A7007F10C07BD4680BC704780B500AF48F2B713C1F6FF731B78002B08D100F00BF848F2B713C1F6FF734FF0F4
:4053800001021A7000F022F880BD00BF80B500AF4FF0000045F2FD41C0F20001FFF7F0F84FF000004FF00701FFF71AF946F28243C4F200034FF062021A7046F28143C4F20D
:4053C00000034FF020021A7080BD00BF80B582B000AFFFF79BF80346FB7146F29243C4F2000346F29242C4F200021278D2B242F02002D2B21A7046F29143C4F2000346F278
:405400009142C4F200021278D2B242F01002D2B21A704FF46143CEF200034FF001021A6000F0E2F8FB791846FFF774F807F10807BD4680BD80B400AF4FF46143CEF2000349
:405440004FF001021A60BD4680BC704780B400AF4EF28013CEF200034FF001021A60BD4680BC704780B582B000AFFFF74FF80346FB7146F29143C4F2000346F29142C4F2C1
:4054800000021278D2B242F00102D2B21A7046F29143C4F2000346F29142C4F200021278D2B222F00102D2B21A70FB791846FFF731F8FFF7CBFF48F2B813C1F6FF734FF0C2
:4054C00000021A7048F2B913C1F6FF734FF000021A7048F2BA13C1F6FF734FF000021A7048F2BB13C1F6FF734FF000021A70FFF7A1FF07F10807BD4680BD00BF80B483B02C
:4055000000AF4FF00003BB7146F26143C4F200031B78FB715EE048F2B913C1F6FF731B78DBB21A4646F24143C4F200031B78D9B248F2C033C1F6FF7399544FF00103BB7188
:40554000BB79002B40D048F2BA13C1F6FF731B78DBB2002B06D048F2BB13C1F6FF734FF001021A7048F2B913C1F6FF731B78DBB203F10103DAB248F2B913C1F6FF731A70E2
:4055800048F2B913C1F6FF731B78DBB2752B06D948F2B913C1F6FF734FF000021A7048F2B913C1F6FF731B78DAB248F2B813C1F6FF731B78DBB29A4206D148F2BA13C1F616
:4055C000FF734FF001021A7046F26143C4F200031B78FB71FB7903F02003002B9BD107F10C07BD4680BC704780B400AF44F2A233C4F2000344F2A232C4F200021278D2B240
:4056000042F00402D2B21A7044F2B233C4F2000344F2B232C4F200021278D2B242F00402D2B21A70BD4680BC704700BF80B485B000AF0346FB7145F2F013C4F200031B7822
:40564000DBB223F00803FB7345F2F013C4F20003FA794FEAC202D2B202F00802D1B2FA7B0A43D2B21A7007F11407BD4680BC704780B485B000AF0346FB7145F24013C4F2C5
:4056800000031B78DBB223F00203FB7345F24013C4F20003FA794FEA4202D2B202F00202D1B2FA7B0A43D2B21A7007F11407BD4680BC704780B400AF45F26113C4F20003F1
:4056C0001B78DBB24FEAD313DBB21846BD4680BC704700BF80B400AF45F20113C4F200031B78DBB203F008034FEAD303DBB21846BD4680BC704700BF80B582B000AF46F2C9
:405700007953C4F200031B78DBB223F00703FB7146F27953C4F20003FA7942F00102D2B21A7046F27953C4F200031B78DBB223F00303FB7146F27953C4F20003FA791A70AC
:4057400000F0C0F847F6F87000F09CF847F6F87000F06AF84FF0000000F04AF800F058F84FF6FF7000F09EF8FEF7D0FE0346BB7146F29853C4F2000346F29852C4F2000288
:405780001278D2B242F01002D2B21A70BB791846FEF7C0FE07F10807BD4680BD80B400AF46F27953C4F2000346F27952C4F200021278D2B262F07F02D2B21A70BD4680BC74
:4057C000704700BF80B500AF48F2BC13C1F6FF731B78002B08D1FFF78FFF48F2BC13C1F6FF734FF001021A70FFF7D8FF80BD00BF80B483B000AF0346FB7146F28853C4F2A7
:405800000003FA791A7007F10C07BD4680BC704780B400AF46F26853C4F200031B78DBB21846BD4680BC704780B483B000AF0346FB8046F60C23C4F20003FA881A8007F152
:405840000C07BD4680BC704780B400AF46F20653C4F200031B7846F68C23C4F200031B889BB21846BD4680BC704700BF80B400AF46F68C23C4F200031B889BB21846BD46E0
:4058800080BC704780B483B000AF0346FB8046F64C23C4F20003FA881A8007F10C07BD4680BC704780B483B000AF0346FB8046F66C23C4F20003FA881A8007F10C07BD4612
:4058C00080BC704780B500AF01E0FFF7CFFFFFF79FFF034603F04003002BF6D180BD00BF80B485B000AF0346FB7145F25013C4F200031B78DBB223F00103FB7345F25013CC
:40590000C4F20003FA7902F00102D1B2FA7B0A43D2B21A7007F11407BD4680BC704700BF80B485B000AF0346FB7145F21013C4F200031B78DBB223F04003FB7345F210130D
:40594000C4F20003FA794FEA8212D2B202F04002D1B2FA7B0A43D2B21A7007F11407BD4680BC704780B400AF45F24113C4F200031B78DBB203F040034FEA9313DBB21846D3
:40598000BD4680BC704700BF80B400AF45F21113C4F200031B78DBB203F010034FEA1313DBB21846BD4680BC704700BF80B582B000AF46F27343C4F200031B78DBB223F026
:4059C0000703FB7146F27343C4F20003FA7942F00102D2B21A7046F27343C4F200031B78DBB223F00303FB7146F27343C4F20003FA791A7000F0C0F847F6F87000F09CF813
:405A000047F6F87000F06AF84FF0000000F04AF800F058F84FF6FF7000F09EF8FEF776FD0346BB7146F29343C4F2000346F29342C4F200021278D2B242F01002D2B21A70BB
:405A4000BB791846FEF766FD07F10807BD4680BD80B400AF46F27343C4F2000346F27342C4F200021278D2B262F07F02D2B21A70BD4680BC704700BF80B500AF48F2BD1334
:405A8000C1F6FF731B78002B08D1FFF78FFF48F2BD13C1F6FF734FF001021A70FFF7D8FF80BD00BF80B483B000AF0346FB7146F28343C4F20003FA791A7007F10C07BD464D
:405AC00080BC704780B400AF46F26343C4F200031B78DBB21846BD4680BC704780B483B000AF0346FB8046F60403C4F20003FA881A8007F10C07BD4680BC704780B400AFEF
:405B000046F20243C4F200031B7846F68403C4F200031B889BB21846BD4680BC704700BF80B400AF46F68403C4F200031B889BB21846BD4680BC704780B483B000AF03461B
:405B4000FB8046F64403C4F20003FA881A8007F10C07BD4680BC704780B483B000AF0346FB8046F66403C4F20003FA881A8007F10C07BD4680BC704780B500AF01E0FFF743
:405B8000CFFFFFF79FFF034603F04003002BF6D180BD00BF80B582B000AF46F27943C4F200031B78DBB223F00703FB7146F27943C4F20003FA7942F00102D2B21A7046F20F
:405BC0007943C4F200031B78DBB223F00303FB7146F27943C4F20003FA791A7000F0C0F847F6F87000F09CF847F6F87000F06AF84FF0000000F04AF800F058F84FF6FF70B4
:405C000000F09EF8FEF782FC0346BB7146F29943C4F2000346F29942C4F200021278D2B242F01002D2B21A70BB791846FEF772FC07F10807BD4680BD80B400AF46F27943EB
:405C4000C4F2000346F27942C4F200021278D2B262F07F02D2B21A70BD4680BC704700BF80B500AF48F2BE13C1F6FF731B78002B08D1FFF78FFF48F2BE13C1F6FF734FF076
:405C800001021A70FFF7D8FF80BD00BF80B483B000AF0346FB7146F28943C4F20003FA791A7007F10C07BD4680BC704780B400AF46F26943C4F200031B78DBB21846BD4607
:405CC00080BC704780B483B000AF0346FB8046F61003C4F20003FA881A8007F10C07BD4680BC704780B400AF46F20843C4F200031B7846F69003C4F200031B889BB218462A
:405D0000BD4680BC704700BF80B400AF46F69003C4F200031B889BB21846BD4680BC704780B483B000AF0346FB8046F65003C4F20003FA881A8007F10C07BD4680BC7047C0
:405D400080B483B000AF0346FB8046F67003C4F20003FA881A8007F10C07BD4680BC704780B500AF01E0FFF7CFFFFFF79FFF034603F04003002BF6D180BD00BF80B582B0D3
:405D800000AF46F27553C4F200031B78DBB223F00703FB7146F27553C4F20003FA7942F00102D2B21A7046F27553C4F200031B78DBB223F00303FB7146F27553C4F200034C
:405DC000FA791A7000F0C0F847F6F87000F09CF847F6F87000F06AF84FF0000000F04AF800F058F84FF6FF7000F09EF8FEF78EFB0346BB7146F29553C4F2000346F2955208
:405E0000C4F200021278D2B242F01002D2B21A70BB791846FEF77EFB07F10807BD4680BD80B400AF46F27553C4F2000346F27552C4F200021278D2B262F07F02D2B21A70C1
:405E4000BD4680BC704700BF80B500AF48F2BF13C1F6FF731B78002B08D1FFF78FFF48F2BF13C1F6FF734FF001021A70FFF7D8FF80BD00BF80B483B000AF0346FB7146F26C
:405E80008553C4F20003FA791A7007F10C07BD4680BC704780B400AF46F26553C4F200031B78DBB21846BD4680BC704780B483B000AF0346FB8046F60823C4F20003FA88D7
:405EC0001A8007F10C07BD4680BC704780B400AF46F20453C4F200031B7846F68823C4F200031B889BB21846BD4680BC704700BF80B400AF46F68823C4F200031B889BB233
:405F00001846BD4680BC704780B483B000AF0346FB8046F64823C4F20003FA881A8007F10C07BD4680BC704780B483B000AF0346FB8046F66823C4F20003FA881A8007F148
:405F40000C07BD4680BC704780B500AF01E0FFF7CFFFFFF79FFF034603F04003002BF6D180BD00BF80B582B000AF46F27A43C4F200031B78DBB223F00703FB7146F27A432C
:405F8000C4F20003FA7942F00102D2B21A7046F27A43C4F200031B78DBB223F00303FB7146F27A43C4F20003FA791A7000F0C0F847F6F87000F09CF847F6F87000F06AF8AC
:405FC0004FF0000000F04AF800F058F84FF6FF7000F09EF8FEF79AFA0346BB7146F29953C4F2000346F29952C4F200021278D2B242F01002D2B21A70BB791846FEF78AFA95
:4060000007F10807BD4680BD80B400AF46F27A43C4F2000346F27A42C4F200021278D2B262F07F02D2B21A70BD4680BC704700BF80B500AF48F2C013C1F6FF731B78002B60
:4060400008D1FFF78FFF48F2C013C1F6FF734FF001021A70FFF7D8FF80BD00BF80B483B000AF0346FB7146F28953C4F20003FA791A7007F10C07BD4680BC704780B400AF7F
:4060800046F26953C4F200031B78DBB21846BD4680BC704780B483B000AF0346FB8046F61403C4F20003FA881A8007F10C07BD4680BC704780B400AF46F20A43C4F200039B
:4060C0001B7846F69403C4F200031B889BB21846BD4680BC704700BF80B400AF46F69403C4F200031B889BB21846BD4680BC704780B483B000AF0346FB8046F65403C4F2A8
:406100000003FA881A8007F10C07BD4680BC704780B483B000AF0346FB8046F67403C4F20003FA881A8007F10C07BD4680BC704780B500AF01E0FFF7CFFFFFF79FFF034676
:4061400003F04003002BF6D180BD00BF80B582B000AF46F27B53C4F200031B78DBB223F00703FB7146F27B53C4F20003FA7942F00102D2B21A7046F27B53C4F200031B78B6
:40618000DBB223F00303FB7146F27B53C4F20003FA791A7000F0C0F847F6F87000F09CF847F6F87000F06AF84FF0000000F04AF800F058F84FF6FF7000F09EF8FEF7A6F9CA
:4061C0000346BB7146F29B53C4F2000346F29B52C4F200021278D2B242F01002D2B21A70BB791846FEF796F907F10807BD4680BD80B400AF46F27B53C4F2000346F27B520A
:40620000C4F200021278D2B262F07F02D2B21A70BD4680BC704700BF80B500AF48F2C113C1F6FF731B78002B08D1FFF78FFF48F2C113C1F6FF734FF001021A70FFF7D8FFFC
:4062400080BD00BF80B483B000AF0346FB7146F28B53C4F20003FA791A7007F10C07BD4680BC704780B400AF46F26B53C4F200031B78DBB21846BD4680BC704780B483B01D
:4062800000AF0346FB8046F61423C4F20003FA881A8007F10C07BD4680BC704780B400AF46F20A53C4F200031B7846F69423C4F200031B889BB21846BD4680BC704700BFAF
:4062C00080B400AF46F69423C4F200031B889BB21846BD4680BC704780B483B000AF0346FB8046F65423C4F20003FA881A8007F10C07BD4680BC704780B483B000AF034609
:40630000FB8046F67423C4F20003FA881A8007F10C07BD4680BC704780B500AF01E0FFF7CFFFFFF79FFF034603F04003002BF6D180BD00BF80B582B000AF46F27853C4F2E0
:4063400000031B78DBB223F00703FB7146F27853C4F20003FA7942F00102D2B21A7046F27853C4F200031B78DBB223F00303FB7146F27853C4F20003FA791A7000F0C0F83D
:4063800047F6F87000F09CF847F6F87000F06AF84FF0000000F04AF800F058F84FF6FF7000F09EF8FEF7B2F80346BB7146F29453C4F2000346F29452C4F200021278D2B202
:4063C00042F01002D2B21A70BB791846FEF7A2F807F10807BD4680BD80B400AF46F27853C4F2000346F27852C4F200021278D2B262F07F02D2B21A70BD4680BC704700BFE6
:4064000080B500AF48F2C213C1F6FF731B78002B08D1FFF78FFF48F2C213C1F6FF734FF001021A70FFF7D8FF80BD00BF80B483B000AF0346FB7146F28453C4F20003FA7952
:406440001A7007F10C07BD4680BC704780B400AF46F26453C4F200031B78DBB21846BD4680BC704780B483B000AF0346FB8046F61023C4F20003FA881A8007F10C07BD4666
:4064800080BC704780B400AF46F20853C4F200031B7846F69023C4F200031B889BB21846BD4680BC704700BF80B400AF46F69023C4F200031B889BB21846BD4680BC7047AD
:4064C00080B483B000AF0346FB8046F65023C4F20003FA881A8007F10C07BD4680BC704780B483B000AF0346FB8046F67023C4F20003FA881A8007F10C07BD4680BC7047BE
:4065000080B500AF01E0FFF7CFFFFFF79FFF034603F04003002BF6D180BD00BF80B582B000AF46F27B43C4F200031B78DBB223F00703FB7146F27B43C4F20003FA7942F00F
:406540000102D2B21A7046F27B43C4F200031B78DBB223F00303FB7146F27B43C4F20003FA791A7000F0C0F847F6F87000F09CF847F6F87000F06AF84FF0000000F04AF8D1
:4065800000F058F84FF6FF7000F09EF8FDF7BEFF0346BB7146F29A43C4F2000346F29A42C4F200021278D2B242F01002D2B21A70BB791846FDF7AEFF07F10807BD4680BDC7
:4065C00080B400AF46F27B43C4F2000346F27B42C4F200021278D2B262F07F02D2B21A70BD4680BC704700BF80B500AF48F2C313C1F6FF731B78002B08D1FFF78FFF48F246
:40660000C313C1F6FF734FF001021A70FFF7D8FF80BD00BF80B483B000AF0346FB7146F28A43C4F20003FA791A7007F10C07BD4680BC704780B400AF46F26A43C4F20003BE
:406640001B78DBB21846BD4680BC704780B483B000AF0346FB8046F61803C4F20003FA881A8007F10C07BD4680BC704780B400AF46F20C43C4F200031B7846F69803C4F25C
:4066800000031B889BB21846BD4680BC704700BF80B400AF46F69803C4F200031B889BB21846BD4680BC704780B483B000AF0346FB8046F65803C4F20003FA881A8007F1DF
:4066C0000C07BD4680BC704780B483B000AF0346FB8046F67803C4F20003FA881A8007F10C07BD4680BC704780B500AF01E0FFF7CFFFFFF79FFF034603F04003002BF6D19C
:4067000080BD00BF80B500AF48F2C413C1F6FF731B78002B08D100F00BF848F2C413C1F6FF734FF001021A7000F08AF880BD00BF80B582B000AF44F60C73C4F2000344F67F
:406740000C72C4F200021278D2B242F00202D2B21A7044F60E73C4F200031B78DBB223F07003FB7144F60E73C4F20003FA7942F01002D2B21A7044F61773C4F2000344F61B
:406780001772C4F200021278D2B222F03002D2B21A7044F61773C4F2000344F61772C4F200021278D2B242F03002D2B21A7044F61773C4F2000344F61772C4F2000212783E
:4067C000D2B222F00F02D2B21A7044F61773C4F2000344F61772C4F200021278D2B242F00F02D2B21A7042F6E06000F059F84FF05A0000F065F84FF0000000F071F844F220
:40680000A333C4F2000344F2A332C4F200021278D2B242F00202D2B21A7044F60D73C4F2000344F60D72C4F200021278D2B242F00102D2B21A7007F10807BD4680BD00BF79
:4068400080B400AF44F2A333C4F2000344F2A332C4F200021278D2B242F00202D2B21A7044F2B333C4F2000344F2B332C4F200021278D2B242F00202D2B21A7044F60C73A8
:40688000C4F2000344F60C72C4F200021278D2B242F00102D2B21A70BD4680BC704700BF80B483B000AF0346FB8044F61073C4F20003FA881A8007F10C07BD4680BC70473C
:4068C00080B483B000AF0346FB8044F61273C4F20003FA881A8007F10C07BD4680BC704780B483B000AF0346FB7144F60F73C4F20003FA791A7007F10C07BD4680BC7047EB
:4069000080B485B000AF0346FB714FF4A243C4F200031B78DBB223F01003FB734FF4A243C4F20003FA794FEA0212D2B202F01002D1B2FA7B0A43D2B21A7007F11407BD4663
:4069400080BC704780B485B000AF0346FB7145F24013C4F200031B78DBB223F00403FB7345F24013C4F20003FA794FEA8202D2B202F00402D1B2FA7B0A43D2B21A7007F132
:406980001407BD4680BC704780B485B000AF0346FB7145F25013C4F200031B78DBB223F02003FB7345F25013C4F20003FA794FEA4212D2B202F02002D1B2FA7B0A43D2B22E
:4069C0001A7007F11407BD4680BC704780B485B000AF0346FB7145F25013C4F200031B78DBB223F04003FB7345F25013C4F20003FA794FEA8212D2B202F04002D1B2FA7BBD
:406A00000A43D2B21A7007F11407BD4680BC704780B485B000AF0346FB7145F25013C4F200031B78DBB203F07F03FB7345F25013C4F20003FA794FEAC212D1B2FA7B0A43B7
:406A4000D2B21A7007F11407BD4680BC704700BF80B485B000AF0346FB7145F22013C4F200031B78DBB223F00803FB7345F22013C4F20003FA794FEAC202D2B202F0080291
:406A8000D1B2FA7B0A43D2B21A7007F11407BD4680BC704780B485B000AF0346FB7145F22013C4F200031B78DBB223F01003FB7345F22013C4F20003FA794FEA0212D2B26F
:406AC00002F01002D1B2FA7B0A43D2B21A7007F11407BD4680BC704780B485B000AF0346FB7145F23013C4F200031B78DBB223F00103FB7345F23013C4F20003FA7902F0F9
:406B00000102D1B2FA7B0A43D2B21A7007F11407BD4680BC704700BF81F0004102E000BF83F0004330B54FEA41044FEA430594EA050F08BF90EA020F1FBF54EA000C55EAFF
:406B4000020C7FEA645C7FEA655C00F0E2804FEA5454D4EB5555B8BF6D420CDD2C4480EA020281EA030382EA000083EA010180EA020281EA0303362D88BF30BD11F0004F19
:406B80004FEA01314FF4801C4CEA113102D0404261EB410113F0004F4FEA03334CEA133302D0524263EB430394EA050F00F0A780A4F10104D5F1200E0DDB02FA0EFC22FAB9
:406BC00005F2801841F1000103FA0EF2801843FA05F359410EE0A5F120050EF1200E012A03FA0EFC28BF4CF0020C43FA05F3C01851EBE37101F0004507D54FF0000EDCF16D
:406C0000000C7EEB00006EEB0101B1F5801F1BD3B1F5001F0CD349085FEA30004FEA3C0C04F101044FEA445212F5800F80F09A80BCF1004F08BF5FEA500C50F1000041EBA4
:406C4000045141EA050130BD5FEA4C0C404141EB010111F4801FA4F10104E9D191F0000F04BF01460020B1FA81F308BF2033A3F10B03B3F120020CDA0C3208DD02F1140CE2
:406C8000C2F10C0201FA0CF021FA02F10CE002F11402D8BFC2F1200C01FA02F120FA0CFCDCBF41EA0C019040E41AA2BF01EB0451294330BD6FEA04041F3C1CDA0C340EDC1B
:406CC00004F11404C4F1200220FA04F001FA02F340EA030021FA04F345EA030130BDC4F10C04C4F1200220FA02F001FA04F340EA0300294630BD21FA04F0294630BD94F041
:406D0000000F83F4801306BF81F480110134013D4EE77FEA645C18BF7FEA655C29D094EA050F08BF90EA020F05D054EA000C04BF1946104630BD91EA030F1EBF0021002091
:406D400030BD5FEA545C05D14000494128BF41F0004130BD14F580043CBF01F5801130BD01F0004545F0FE4141F470014FF0000030BD7FEA645C1ABF194610467FEA655CEE
:406D80001CBF0B46024650EA013406BF52EA033591EA030F41F4002130BD00BF90F0000F04BF0021704730B54FF4806404F132044FF000054FF0000150E700BF90F0000FBE
:406DC00004BF0021704730B54FF4806404F1320410F0004548BF40424FF000013EE700BF42004FEAE2014FEA31014FEA02701FBF12F07F4393F07F4F81F06051704792F00D
:406E0000000F14BF93F07F4F704730B54FF4607401F0004521F0004120E700BF50EA010208BF704730B54FF000050AE050EA010208BF704730B511F0004502D5404261EBC5
:406E400041014FF4806404F132045FEA915C3FF4DCAE4FF003025FEADC0C18BF03325FEADC0C18BF033202EBDC02C2F1200300FA03FC20FA02F001FA03FE40EA0E0021FAD8
:406E800002F11444C1E600BF70B54FF0FF0C4CF4E06C1CEA11541DBF1CEA135594EA0C0F95EA0C0F00F0DEF82C4481EA030621EA4C5123EA4C5350EA013518BF52EA033585
:406EC00041F4801143F4801338D0A0FB02CE4FF00005E1FB02E506F00042E0FB03E54FF00006E1FB03569CF0000F18BF4EF0010EA4F1FF04B6F5007F64F5407404D25FEA66
:406F00004E0E6D4146EB060642EAC62141EA55514FEAC52040EA5E504FEACE2EB4F1FD0C88BFBCF5E06F1ED8BEF1004F08BF5FEA500E50F1000041EB045170BD06F0004679
:406F400046EA010140EA020081EA0301B4EB5C04C2BFD4EB0C0541EA045170BD41F480114FF0000E013C00F3AB8014F1360FDEBF002001F0004170BDC4F10004203C35DA4F
:406F80000C341BDC04F11404C4F1200500FA05F320FA04F001FA05F240EA020001F0004221F0004110EBD37021FA04F642EB06015EEA430E08BF20EAD37070BDC4F10C04EA
:406FC000C4F1200500FA04F320FA05F001FA04F240EA020001F0004110EBD37041F100015EEA430E08BF20EAD37070BDC4F1200500FA05F24EEA020E20FA04F301FA05F207
:4070000043EA020321FA04F001F0004121FA04F220EA020000EBD3705EEA430E08BF20EAD37070BD94F0000F0FD101F00046400041EB010111F4801F08BF013CF7D041EA06
:40704000060195F0000F18BF704703F00046520043EB030313F4801F08BF013DF7D043EA0603704794EA0C0F0CEA135518BF95EA0C0F0CD050EA410618BF52EA4306D1D106
:4070800081EA030101F000414FF0000070BD50EA410606BF1046194652EA430619D094EA0C0F02D150EA013613D195EA0C0F05D152EA03361CBF104619460AD181EA0301DA
:4070C00001F0004141F0FE4141F470014FF0000070BD41F0FE4141F4780170BD70B54FF0FF0C4CF4E06C1CEA11541DBF1CEA135594EA0C0F95EA0C0F00F0A7F8A4EB050487
:4071000081EA030E52EA03354FEA013100F088804FEA03334FF0805545EA131343EA12634FEA022245EA111545EA10654FEA00260EF000419D4208BF964244F1FD0404F5E1
:40714000407402D25B084FEA3202B61A65EB03055B084FEA32024FF480104FF4002CB6EB020E75EB030E22BFB61A754640EA0C005B084FEA3202B6EB020E75EB030E22BFE6
:40718000B61A754640EA5C005B084FEA3202B6EB020E75EB030E22BFB61A754640EA9C005B084FEA3202B6EB020E75EB030E22BFB61A754640EADC0055EA060E18D04FEAC2
:4071C000051545EA16754FEA06164FEAC30343EA52734FEAC2025FEA1C1CC0D111F4801F0BD141EA00014FF000004FF0004CB6E711F4801F04BF01430020B4F1FD0C88BF93
:40720000BCF5E06F3FF6AFAEB5EB030C04BFB6EB020C5FEA500C50F1000041EB045170BD0EF0004E4EEA113114EB5C04C2BFD4EB0C0541EA045170BD41F480114FF0000ED1
